:040000006F20C07C31
:10000400000000000000000090000020E621002015
:10001400A9BDF9F3900000200000000000000000DA
:10002400900000209000002000000000000000006C
:10003400900000200000000090000020000000005C
:10004400CE19002090000020900000209000002095
:1000540090000020900000209000002090000020DC
:1000640090000020900000209000002090000020CC
:1000740090000020900000209000002090000020BC
:1000840090000020900000209000002090000020AC
:1000940001A0797106D622D40018AA872E87231FBF
:1000A400F4FCBA87A30EF4FCEF00300F1305A00292
:1000B400EF007038EF00101E8357E4FD93F7F70F3D
:1000C4003E85EF005037EF00F01C8347D4FD3E859A
:1000D400EF007036EF00101CEF003014A30704FE8D
:1000E4008347F4FE3E85B250225445618280797183
:1000F40006D622D426D20018AA872E87232CC4FC25
:10010400231FF4FCBA87A30EF4FC230704FEEF00BC
:10011400D0081305A002EF001032EF00B017835788
:10012400E4FD93F7F70F3E85EF00F030EF009016F3
:10013400EF00B0061305B002EF00F02FEF009015AA
:10014400A30704FEB1A00347F4FE8347D4FDFD17C3
:10015400631FF7008347F4FE032784FDB304F7000D
:100164000145EF00103AAA872380F40029A88347A9
:10017400F4FE032784FDB304F7000545EF0070384F
:10018400AA872380F4008347F4FE8507A307F4FEBF
:100194000347F4FE8347D4FDE367F7FAEF00F00763
:1001A400230704FE8347E4FE3E85B2502254925452
:1001B40045618280011106CE22CC0010212FB71791
:1001C40000409387C70C9843B71700409387C70C28
:1001D4001367072098C3B71700409387C70C984349
:1001E400B71700409387C70C1367071098C313050C
:1001F4002003EF206017B71700409387870C9843BC
:10020400B71700409387870C1367071098C313052B
:100214002003EF206015B71700409387870C98439D
:10022400B71700409387870C1367072098C31305FB
:100234002003EF20601335275145EF20E012930788
:10024400F4FE3E8685451305700A55350100F240DB
:10025400624405618280797106D622D40018AA8787
:10026400A30FF4FCA30704FE230704FE9307F4FD85
:100274003E8685450945A53D8347F4FDE207E187B0
:1002840063D007028347F4FD13F7F700954763C96A
:10029400E700A30604FE8347D4FEBE850945D53B8B
:1002A4008347F4FDBD8B638A071C8347F4FD13F772
:1002B400F700954763C3E71C8347F4FDBD8B130721
:1002C400F00FB317F700A306F4FE972700009387F7
:1002D400E75A83C707012306F4FE8307D4FE93C7B6
:1002E400F7FFE207E18793E717FCE207E18713F7DB
:1002F400F70F97270000938767582388E70097270D
:1003040000009387A75703D7870097270000938798
:10031400E7562395E700972700009387275603D7CE
:10032400C70097270000938767552397E700A30723
:1003340004FE71A0972700009387475483C70701E1
:100344003E878347F4FEB357F740858BA5C78347A1
:10035400F4FE177706E01307E7BB8607BA9783D73F
:100364000700130784FE3A8691453E854933834747
:1003740094FE1397070141838347F4FE9306000F0D
:100384003387E64042074183972600009386064F51
:100394008607B6972394E7000347B4FE8347F4FE29
:1003A40042074183972600009386464D8607B697F9
:1003B4002396E7008347F4FE8507A307F4FE03476B
:1003C400F4FE8547E3F8E7F685472307F4FE97270D
:1003D40000009387A74A03D787009307000F63ECB5
:1003E400E700972700009387674903D7C70093075F
:1003F400000F63F5E7128347F4FDB98B95CB97277C
:1004040000009387A74703D7A70097270000938787
:10041400E7462394E700972700009387274603D7EE
:10042400E70097270000938767452396E700FDA020
:10043400972700009387874403D7A70097270000D6
:100444009387C7432394E7009727000093870743C4
:1004540003D7E70097270000938747422396E700D6
:10046400930700F8A30FF4FC972700009387074134
:100474000347C4FE2388E70055A09727000093870D
:10048400E73F83C7070193F71708A9CF9727000011
:100494009387C73E83C7070193F7F70713F7F70F4F
:1004A400972700009387873D2388E700972700005C
:1004B4009387C73C23940700972700009387073C42
:1004C40023960700972700009387473B83C70701BC
:1004D400819B13F7F70F972700009387273A238808
:1004E400E70035A89727000093874739239407002E
:1004F40097270000938787382396070097270000E3
:100504009387C73783C70701819B13F7F70F972793
:1005140000009387A7362388E70011A001008347D2
:10052400E4FE3E85B250225445618280011106CE1C
:1005340022CC00109307F4FE3E8685450945453ECE
:100544008347F4FE99C3854711A081473E85F24055
:10055400624405618280011106CE22CC001023176B
:1005640004FE930774FE3E86854509454936834754
:1005740074FE95C38D47130784FE3A8691453E85E4
:10058400BD36834794FEC207C1831307000FB30728
:10059400F7402317F4FE8357E4FE3E85F24062449D
:1005A40005618280011106CE22CC0010231704FEBF
:1005B400930774FE3E8685450945153E834774FEC0
:1005C40081CF8D47130784FE3A8691453E850536D3
:1005D4008347B4FE2317F4FE8357E4FE3E85F240BE
:1005E400624405618280011106CE22CC001093077B
:1005F400B4FE3E8685450945DD3C8347B4FEA1C370
:100604008D471307C4FE3A8691453E85CD34834712
:10061400D4FEC207C1831307000FB307F740139733
:1006240007014183938701992390E7008347F4FEF0
:10063400139707014183938701992391E7009387D7
:1006440001993E85F240624405618280011106CE23
:1006540022CC0010A30704FE231604FE97270000F3
:100664009387C721DC4301458297A30704FE49A26F
:10067400972700009387872083C707013E87834716
:10068400F4FEB357F740858B638607148347F4FE63
:10069400172700001307871E8607BA9703D787001A
:1006A4009307F00E63E1E7148347F4FE1727000075
:1006B4001307C71C8607BA9703D7C7009307F00E22
:1006C40063E3E7128347F4FE8A07130704FFBA972C
:1006D40003D747FFC167FD176318F7048347F4FE88
:1006E4008346F4FE17270000130747198607BA97B5
:1006F40003D7870093972600930604FFB697239A9F
:10070400E7FE8347F4FE8346F4FE17270000130731
:10071400E7168607BA9703D7C70093972600930670
:1007240004FFB697239BE7FE8347F4FE8A0713076B
:1007340004FFBA9703D547FF8347F4FE8A071307DC
:1007440004FFBA9783D567FF8347F4FE1727000099
:100754001307C7128607BA9703D687008347F4FEA8
:1007640017270000130787118607BA9783D6C70097
:100774008148176806E01308E89893078002130776
:100784008002EF00D00E8347F4FE8346F4FE172761
:1007940000001307A70E8607BA9703D7870093971D
:1007A4002600930604FFB697239AE7FE8347F4FED8
:1007B4008346F4FE172700001307470C8607BA97F1
:1007C40003D7C70093972600930604FFB697239B8D
:1007D400E7FE11A88347F4FE8A07130704FFBA97BC
:1007E4007D57239AE7FE8347F4FE8507A307F4FEAB
:1007F4000347F4FE8547E3FDE7E6B7170040938718
:10080400470A9C43858B99EBC1671387F7FF9306CF
:10081400000F1306000F81450145F92BB71700405F
:100824009387470A9C43898B89EB01479306000F02
:100834001306000F81450145C123B7170040938774
:10084400470A9C43918B89E7930700802316F4FEA3
:10085400B71700409387470A9C43A18BE39007E0B6
:10086400FD472316F4FEDDBB411106C622C4000871
:1008740085450565970006E0E780A0E3B7170040CB
:100884009387C70C9443B71700409387C70C056739
:10089400558F98C30100B240224441018280411126
:1008A40006C622C4000891450565970006E0E78066
:1008B40040E0B71700409387870C9443B717004074
:1008C4009387870C0567558F98C30100B240224473
:1008D40041018280411106C622C4000891451305D6
:1008E4000010970006E0E780C0DCB717004093874C
:1008F400870C9843B71700409387870C136707103A
:1009040098C3914513050020970006E0E78060DA5C
:10091400B71700409387870C9843B7170040938715
:10092400870C1367072098C391450965970006E073
:10093400E78020D891450565970006E0E78060D7F9
:10094400B71700409387870C9443B71700409387E9
:10095400870C0D67558F98C30100B24022444101B2
:100964008280411106C622C4000885451305001083
:10097400970006E0E780E0D3B71700409387C70CE1
:100984009843B71700409387C70C1367071098C3A1
:100994000100B240224441018280411106C622C4B2
:1009A4000008F53DB71700409387870C9443B717A9
:1009B40000409387870C0567558F98C3B71700408D
:1009C4009387870C9443B71700409387870C096774
:1009D400558F98C31545EF105016B71700409387ED
:1009E400C70C9443B71700409387C70C0567558F0E
:1009F40098C31545EF107014B71700409387C70CC0
:100A04009443B71700409387C70C0967558F98C361
:100A14000100B240224441018280411106C622C431
:100A24000008B53DB71700409387C70C9443B71728
:100A340000409387C70C0967558F98C3B7170040C8
:100A44009387C70C9443B71700409387C70C056777
:100A5400558F98C31545EF10500EB7170040938774
:100A6400870C9443B71700409387870C0967558F09
:100A740098C3B71700409387870C9443B717004077
:100A84009387870C0567558F98C30100B2402244B1
:100A940041018280011106CE22CC0010A30704FE7E
:100AA400E133B71700409387870C9443B71700408E
:100AB4009387870C0567558F98C3B71700409387B2
:100AC400870C9443B71700409387870C0967558FA9
:100AD40098C31545EF10700639A88347F4FE8507BF
:100AE400A307F4FE0347F4FE9307A00F63F5E700A2
:100AF4002D37854735A0B71700409387470C984397
:100B04008567F98FF9FBB71700409387C70C9443A7
:100B1400B71700409387C70C0967558F98C381475F
:100B24003E85F240624405618280411106C622C4BA
:100B34000008B71700409387C70C9443B7170040C9
:100B44009387C70C0967558F98C3913B1545EF10E0
:100B5400C07EB71700409387C70C9443B717004073
:100B64009387C70C0567558F98C31545EF10E07C34
:100B7400B71700409387870C9443B71700409387B7
:100B8400870C0967558F98C31545EF10007BB7177D
:100B940000409387C70C9443B71700409387C70C52
:100BA4000967558F98C30100B240224441018280F5
:100BB400411106C622C40008B71700409387C70C2A
:100BC4009443B71700409387C70C0967558F98C3A0
:100BD400F9311545EF106076B71700409387870CFD
:100BE4009443B71700409387870C0567558F98C3C4
:100BF4001545EF108074B71700409387870C944312
:100C0400B71700409387870C0967558F98C315451C
:100C1400EF10A072B71700409387C70C9443B7171F
:100C240000409387C70C0967558F98C30100B240F1
:100C3400224441018280797106D622D40018AA8701
:100C4400A30FF4FCA939B71700409387C70C94434A
:100C5400B71700409387C70C0967558F98C3A3073C
:100C640004FE71A08307F4FD63DF0700B71700409B
:100C74009387870C9443B71700409387870C0567C5
:100C8400558F98C329A8B71700409387C70C94437E
:100C9400B71700409387C70C0567558F98C38347E0
:100CA400F4FD8607A30FF4FCB71700409387870C65
:100CB4009443B71700409387870C0967558F98C3EF
:100CC4001545EF108067B71700409387C70C94430E
:100CD400B71700409387C70C0967558F98C315450C
:100CE400EF10A0658347F4FE8507A307F4FE0347CE
:100CF400F4FE9D47E3F8E7F60100B2502254456143
:100D04008280797106D622D40018AA87A30FF4FC36
:100D1400A13EA30704FE9DA0B71700409387C70C0C
:100D24009443B71700409387C70C0967558F98C33E
:100D34001545EF108060B71700409387870C9443E4
:100D4400B71700409387870C0967558F98C383476B
:100D5400E4FE86072307F4FEB71700409387470C89
:100D640098438567F98F91C78347E4FE8507230776
:100D7400F4FE8347F4FE8507A307F4FE0347F4FE5D
:100D84009D47E3FBE7F88347F4FD99E3153511A08C
:100D9400693B8347E4FE3E85B2502254456182801C
:100DA400411106C622C40008B71700409387C70C38
:100DB4009443B71700409387C70C4167558F98C376
:100DC40013056004EF00304497F005E0E780E06D20
:100DD40097F004E0E78020D097F005E0E78020A3B7
:100DE40097F005E0E780E0B7EF00F03B81473E85F0
:100DF400B240224441018280797106D622D400187F
:100E0400AA87231FF4FCAE87231EF4FCB287231D9C
:100E1400F4FCB687231CF4FCBA87231BF4FC835729
:100E2400A4FDFD17139607014182835784FDFD1726
:100E340093960701C1820357C4FD8357E4FDBA8525
:100E44003E85EF0070308357C4FD2317F4FE1DA8C0
:100E54008357E4FD2316F4FE19A8835764FD3E85E9
:100E6400EF00B0248357C4FE85072316F4FE03570E
:100E7400C4FE8357A4FDE362F7FE8357E4FE8507AF
:100E84002317F4FE0357E4FE835784FDE362F7FC63
:100E94000100B250225445618280011106CE22CC59
:100EA4000010AA87AE8632872317F4FEB68723166E
:100EB400F4FEBA872315F4FE8356C4FE0356E4FEFB
:100EC4000357C4FE8357E4FEBA853E85EF00D0275E
:100ED4008357A4FE3E85EF00501D0100F24062449A
:100EE400056182805D7186C6A2C48008AA87231F1B
:100EF400F4FAAE87231EF4FAB287231DF4FAB687F8
:100F0400231CF4FABA87231BF4FA232404FE2322B5
:100F140004FE0357A4FB8357E4FBB307F7402320E5
:100F2400F4FE035784FB8357C4FBB307F740232E17
:100F3400F4FC8357E4FB2326F4FC8357C4FB2324EB
:100F4400F4FC832704FE6356F0008547232AF4FC4F
:100F540005A0832704FE81E7232A04FC11A8FD577A
:100F6400232AF4FC832704FEB307F0402320F4FE75
:100F74008327C4FD6356F00085472328F4FC05A0AD
:100F84008327C4FD81E7232804FC11A8FD572328E7
:100F9400F4FC8327C4FDB307F040232EF4FC03279D
:100FA40004FE8327C4FD63D7E700832704FE232CB4
:100FB400F4FC29A08327C4FD232CF4FC231704FE8E
:100FC40061A88327C4FCC207C183032784FC4207AA
:100FD4004183835664FB3686BA853E857D3D03276F
:100FE40084FE832704FEBA972324F4FE032744FED9
:100FF4008327C4FDBA972322F4FE032784FE8327A4
:1010040084FD63D1E702032784FE832784FDB307AD
:10101400F7402324F4FE0327C4FC832744FDBA9736
:101024002326F4FC032744FE832784FD63D1E702CF
:10103400032744FE832784FDB307F7402322F4FEED
:10104400032784FC832704FDBA972324F4FC8357E5
:10105400E4FE85072317F4FE8357E4FE032784FD8B
:10106400E351F7F60100B6402644616182805D7168
:1010740086C6A2C480082A8E2E833285B6853A8617
:10108400BE86232004FD4687F2872317F4FC9A8743
:101094002316F4FCAA872315F4FCAE872314F4FC6E
:1010A400B2872313F4FCB6872312F4FCBA87A30F88
:1010B400F4FA232404FE85472311F4FE0357A4FC09
:1010C4008357E4FC63E1E7020357A4FC8357E4FC81
:1010D4006379F700835724FEB307F040C207C18346
:1010E40029A0814719A0835724FE2310F4FE035737
:1010F40084FC8357C4FC63E1E702035784FC8357F1
:10110400C4FC6379F700835724FEB307F040C20799
:10111400C18329A0814719A0835724FE231FF4FC0F
:101124000357A4FC8357E4FCB3B7E70093F7F70F26
:10113400232CF4FC035784FC8357C4FCB3B7E700A7
:1011440093F7F70F232AF4FC8357E4FC2313F4FEEC
:101154008357C4FC2312F4FECDAA0357E4FC83573F
:1011640064FCBA97C207C183FD1713960701418235
:101174000357C4FC835744FCBA97C207C183FD17C5
:1011840093960701C1820357C4FC8357E4FCBA85D4
:101194003E85EF00607B232404FE231704FEB1A8E0
:1011A400231604FE81A0832784FE8607032704FCFC
:1011B400BA9783C707003E856D2D832784FE860773
:1011C4008507032704FCBA9783C707003E85552586
:1011D400832784FE85072324F4FE8357C4FE8507F2
:1011E4002316F4FE0357C4FE835744FCE36DF7FA59
:1011F4008357E4FE85072317F4FE0357E4FE835761
:1012040064FCE36FF7F80357E4FC835764FE631848
:10121400F7000357C4FC835744FE6306F70E0357D5
:1012240064FE8357E4FC6306F706832784FD85C7C1
:10123400035744FE835744FCBA9793960701C1822F
:101244000356E4FC835544FE035564FEC1671387CB
:10125400F7FF5D363DA80357E4FC835764FCBA9757
:10126400139507014181035764FE835764FCBA97C1
:10127400139607014182035744FE835744FCBA97EF
:1012840093960701C182835544FEC1671387F7FF14
:10129400A536035744FE8357C4FC6306F706832729
:1012A40044FD85C7035764FE835764FCBA971396BD
:1012B400070141828356C4FC835544FE035564FEF2
:1012C400C1671387F7FF0D3E3DA80357C4FC83573E
:1012D40044FCBA9793950701C181035764FE835771
:1012E40064FCBA97139607014182035744FE83575F
:1012F40044FCBA9793960701C182035564FEC16703
:101304001387F7FFD53C8357E4FC2313F4FE83577C
:10131400C4FC2312F4FE0357E4FC8357A4FC6309C2
:10132400F7000357E4FC835704FEBA972317F4FC31
:101334000357C4FC835784FC6309F7000357C4FCB8
:101344008357E4FDBA972316F4FC0357E4FC835750
:10135400A4FCE314F7E00357C4FC835784FCE31EA6
:10136400F7DE0100B640264461618280397106DEF1
:1013740022DC80002A832E85B2853686BA8623280D
:10138400F4FC232604FD46879A87231FF4FCAA87CE
:10139400231EF4FCAE87231DF4FCB287231CF4FC4B
:1013A400B687A30BF4FCBA87230BF4FC231504FEC5
:1013B400232204FED1472311F4FE034774FD85471D
:1013C4006307F700034774FD89476315F7008357E4
:1013D40084FD19A08357A4FD2310F4FE35A10357FF
:1013E400E4FD8357A4FDBA97C207C183FD17139682
:1013F400070141820357C4FD835784FDBA97C2078E
:10140400C183FD1793960701C1820357C4FD835717
:10141400E4FDBA853E850D2B834774FD0947638936
:10142400E71009476346F7000547638AE7007DAE86
:101434000D476380E72011476389E72C45AE835746
:10144400A4FE2317F4FE9DA0231604FEA9A00357AF
:10145400E4FE835784FD3307F7028357C4FEBA972B
:1014640086072322F4FE032704FD832744FEBA974C
:1014740083C707003E85F52E832744FE850703278F
:1014840004FDBA9783C707003E85E5268357C4FE4B
:1014940085072316F4FE0357C4FE835784FDE368CF
:1014A400F7FA8357E4FE85072317F4FE0357E4FE97
:1014B4008357A4FDE36AF7F8231704FE9DA02316BF
:1014C40004FEA9A00357E4FE835784FD3307F70203
:1014D4008357C4FEBA9786072322F4FE0327C4FC6D
:1014E400832744FEBA9783C707003E85592683277E
:1014F40044FE85070327C4FCBA9783C707003E85CB
:101504008D2E8357C4FE85072316F4FE0357C4FEAD
:10151400835784FDE368F7FA8357E4FE85072317AE
:10152400F4FE0357E4FE8357A4FEE36AF7F87DACA8
:101534000357A4FD8357A4FEB307F7402317F4FE13
:101544009DA0231604FEA9A00357E4FE835784FD3F
:101554003307F7028357C4FEBA9786072322F4FEA3
:101564000327C4FC832744FEBA9783C707003E853C
:101574000926832744FE85070327C4FCBA9783C73B
:1015840007003E85FD248357C4FE85072316F4FE19
:101594000357C4FE835784FDE368F7FA8357E4FED8
:1015A40085072317F4FE0357E4FE8357A4FDE36A7B
:1015B400F7F8231704FE9DA0231604FEA9A00357E1
:1015C400E4FE835784FD3307F7028357C4FEBA97BA
:1015D40086072322F4FE032704FD832744FEBA97DB
:1015E40083C707003E857124832744FE85070327AC
:1015F40004FDBA9783C707003E85A52C8357C4FE14
:1016040085072316F4FE0357C4FE835784FDE3685D
:10161400F7FA8357E4FE85072317F4FE0357E4FE25
:101624008356A4FD8357A4FEB387F640E346F7F838
:1016340075AA231704FED9A0231604FE6DA0035730
:10164400C4FE8357A4FE6378F7040357E4FE83576C
:1016540084FD3307F702835684FD8357A4FE9D8ED1
:101664008357C4FEB697BA9786072322F4FE03274E
:10167400C4FC832744FEBA9783C707003E85D52A56
:10168400832744FE85070327C4FCBA9783C7070052
:101694003E85C522A1A00357E4FE835784FD33078A
:1016A400F7028356C4FE8357A4FEB387F640BA9765
:1016B40086072322F4FE032704FD832744FEBA97FA
:1016C40083C707003E857522832744FE85070327C9
:1016D40004FDBA9783C707003E85612A8357C4FE79
:1016E40085072316F4FE0357C4FE835784FDE3687D
:1016F400F7F48357E4FE85072317F4FE0357E4FE4B
:101704008357A4FDE36AF7F2D5A0231704FEC1A80A
:10171400231604FE55A80357C4FE835684FD83573D
:10172400A4FEB387F6406355F7040357E4FE8357DA
:1017340084FD3307F7028357C4FE3E978357A4FE04
:10174400BA9786072322F4FE032704FD832744FE69
:10175400BA9783C707003E85292A832744FE850755
:10176400032704FDBA9783C707003E85192281A881
:101774000357E4FE835784FD3307F7028356C4FE00
:10178400035684FD8357A4FEB307F640B387F6409F
:10179400BA9786072322F4FE0327C4FC832744FE5A
:1017A400BA9783C707003E85E920832744FE85074F
:1017B4000327C4FCBA9783C707003E855D28835777
:1017C400C4FE85072316F4FE0357C4FE835784FD25
:1017D400E363F7F48357E4FE85072317F4FE035706
:1017E400E4FE8357A4FDE365F7F201000357A4FE6A
:1017F400835724FEBA972315F4FE834764FDC2077A
:10180400C1833E85EF0050360357A4FE835704FE80
:10181400E3F7E7BC0100F2506254216182800111B8
:1018240022CE0010AA87A307F4FEB71700409387BF
:10183400870C0347F4FE2380E700B7170040938723
:10184400C70A9443B71700409387C70A1167558F97
:1018540098C3B71700409387870A9443B71700408B
:101864009387870A1167558F98C3010072440561F5
:101874008280011106CE22CC0010AA87A307F4FEB1
:10188400B71700409387870A9843B7170040938798
:10189400870A1367074098C38347F4FE3E854137A0
:1018A4000100F240624405618280011106CE22CC1F
:1018B4000010AA872317F4FEB71700409387870AFE
:1018C4009843B71700409387870A1367074098C364
:1018D4008357E4FEA183C207C18393F7F70F3E85C4
:1018E4003D3F8357E4FE93F7F70F3E850D3F01001C
:1018F400F240624405618280011106CE22CC0010C0
:10190400AA87A307F4FEB71700409387C70A984332
:10191400B71700409387C70A1367074098C38347E4
:10192400F4FE3E85ED3DB71700409387870A984340
:10193400B71700409387870A1367074098C30100CD
:10194400F240624405618280011106CE22CC00106F
:10195400AA8736872317F4FEAE872316F4FEB287D0
:101964002315F4FEBA872314F4FE1305A002693785
:101974008357E4FE3E85153F8357A4FE3E853537E5
:101984001305B002953F8357C4FE3E85393F835704
:1019940084FE3E85193F1305C002B93F0100F240A1
:1019A400624405618280411106C622C40008971072
:1019B40000E0E780A0FE97F005E0E78060AA97D0FA
:1019C40001E0E780003D0545EF00101AEDB7411135
:1019D40022C60008B7270040990783C7070093F77A
:1019E400F70F858B99C7B7270040990705472380D0
:1019F400E700054597F001E0E780E0380100324454
:101A0400410173002030357122CF00112326A4F642
:101A1400F32700802322F4FE832744FEA18B85C391
:101A2400F32700802320F4FE032704FE93874199C3
:101A340098C3938741999C43DD9B73900780010071
:101A44000100B7170040938707041307700523802C
:101A5400E700B717004093870704130780FA238031
:101A6400E70001000100B71700409387B70483C75C
:101A7400070013F7F70FB71700409387B7041377DE
:101A8400F7FD1377F70F2380E700B717004093871C
:101A9400070423800700F32700802324F4FE032790
:101AA40084FE938741999C43A18BD98F73900780BF
:101AB4009387419923A00700010001008327C4F6FE
:101AC40093F7070263830722B7170040A90783C768
:101AD400070093F7F70F918BE9E7F3270080232C96
:101AE400F4FC832784FDA18B85C3F3270080232A7C
:101AF400F4FC032744FD9387419998C39387419944
:101B04009C43DD9B7390078001000100B7170040E0
:101B140093870704130770052380E700B717004075
:101B240093870704130780FA2380E700010001006C
:101B3400B7170040A90783C7070013F7F70FB717B4
:101B44000040A907136747001377F70F2380E700C6
:101B5400B71700409387070423800700F32700800A
:101B6400232EF4FC0327C4FD938741999C43A18B46
:101B7400D98F739007809387419923A007000100B0
:101B84000100232604FE01A8010001008327C4FEEE
:101B940085072326F4FE0327C4FE9307F04AE3F5E2
:101BA400E7FEF32700802320F4FC832704FCA18BA9
:101BB40085C3F3270080232EF4FA0327C4FB9387FD
:101BC400419998C3938741999C43DD9B7390078007
:101BD40001000100B717004093870704130770053D
:101BE4002380E700B717004093870704130780FAA0
:101BF4002380E700010001008327C4F6139707013F
:101C04004183B7170040A1077D8B4207418323908E
:101C1400E7000100010001000100B71700409387AD
:101C2400070423800700F32700802322F4FC032702
:101C340044FC938741999C43A18BD98F739007806F
:101C44009387419923A0070001000100F327008036
:101C54002326F4FC8327C4FCA18B85C3F3270080CF
:101C64002324F4FC032784FC9387419998C3938726
:101C740041999C43DD9B7390078001000100B717D5
:101C8400004093870704130770052380E700B71704
:101C9400004093870704130780FA2380E7000100BC
:101CA400010001000100B7270040938777801307E4
:101CB40010052380E700B7170040938707042380AB
:101CC4000700F32700802328F4FC032704FD9387EF
:101CD40041999C43A18BD98F739007809387419935
:101CE40023A007000100010049A68327C4F693F747
:101CF40007046387072CB7170040A90783C70700A9
:101D040093F7F70FC18BE9E7F3270080232AF4FA4E
:101D1400832744FBA18B85C3F32700802328F4FA8F
:101D2400032704FB9387419998C3938741999C4364
:101D3400DD9B7390078001000100B7170040938773
:101D44000704130770052380E700B7170040938743
:101D54000704130780FA2380E70001000100B71786
:101D64000040A90783C7070013F7F70FB717004010
:101D7400A907136707011377F70F2380E700B71745
:101D840000409387070423800700F3270080232C57
:101D9400F4FA032784FB938741999C43A18BD98F41
:101DA400739007809387419923A0070001000100E5
:101DB400232604FE01A8010001008327C4FE850731
:101DC4002326F4FE0327C4FE9307F07CE3F5E7FE25
:101DD400F32700802324F4FA832784FAA18B85C394
:101DE400F32700802322F4FA032744FA93874199C6
:101DF40098C3938741999C43DD9B739007800100AE
:101E04000100B71700409387070413077005238068
:101E1400E700B717004093870704130780FA23806D
:101E2400E700010001008327C4F6C207C183FD8BCC
:101E3400139707014183B7170040A10713670704ED
:101E4400420741832390E7000100010001000100E3
:101E5400B71700409387070423800700F327008007
:101E64002326F4FA0327C4FA938741999C43A18B50
:101E7400D98F739007809387419923A007000100AD
:101E840001000327C4F693076004631EF708F327D1
:101E94000080232EF4F88327C4F9A18B85C3F3278C
:101EA4000080232CF4F8032784F99387419998C37D
:101EB400938741999C43DD9B739007800100010047
:101EC400B717004093870704130770052380E700C2
:101ED400B717004093870704130780FA2380E700AD
:101EE40001000100B72700409387778009472380CA
:101EF400E700B71700409387070423800700F32700
:101F040000802320F4FA032704FA938741999C4321
:101F1400A18BD98F739007809387419923A00700E1
:101F24000100010099A2F32700802328F4F88327F5
:101F340004F9A18B85C3F32700802326F4F8032733
:101F4400C4F89387419998C3938741999C43DD9B37
:101F54007390078001000100B717004093870704BE
:101F6400130770052380E700B71700409387070421
:101F7400130780FA2380E70001000100B72700401F
:101F840093877780130720052380E700B717004065
:101F94009387070423800700F3270080232AF4F89B
:101FA400032744F9938741999C43A18BD98F73905C
:101FB40007809387419923A007000100010075A0C1
:101FC400F32700802322F4F8832744F8A18B85C3E8
:101FD400F32700802320F4F8032704F8938741991A
:101FE40098C3938741999C43DD9B739007800100BC
:101FF4000100B71700409387070413077005238077
:10200400E700B717004093870704130780FA23807B
:10201400E70001000100B7170040A10783D70700BC
:10202400139707014183B7170040A1071367070CF3
:10203400420741832390E700B717004093870704C2
:1020440023800700F32700802324F4F8032784F86F
:10205400938741999C43A18BD98F73900780938771
:10206400419923A0070001000100F3270080232CDD
:10207400F4F6832784F7A18B85C3F3270080232AF2
:10208400F4F6032744F79387419998C393874199BA
:102094009C43DD9B7390078001000100B71700404B
:1020A40093870704130770052380E700B7170040E0
:1020B40093870704130780FA2380E70001000100D7
:1020C400B71700409387B70483C7070013F7F70FC8
:1020D400B71700409387B704136707F81377F70F10
:1020E4002380E700B7170040938707042380070085
:1020F400F3270080232EF4F60327C4F7938741992E
:102104009C43A18BD98F739007809387419923A017
:1021140007000100010001007A440D618280011171
:1021240006CE22CC00108146014681451145052E7C
:10213400F32700802324F4FE832784FEA18B85C328
:10214400F32700802322F4FE032744FE938741995A
:1021540098C3938741999C43DD9B7390078001004A
:102164000100B71700409387070413077005238005
:10217400E700B717004093870704130780FA23800A
:10218400E70001000100B71700409387670483C785
:10219400070013F7F70FB717004093876704136717
:1021A40017001377F70F2380E700B71700409387D2
:1021B400070423800700F32700802326F4FE032767
:1021C400C4FE938741999C43A18BD98F7390078058
:1021D4009387419923A00700010001000100F24008
:1021E400624405618280797122D6001881460146D5
:1021F40081451145AD24F3270080232EF4FC832769
:10220400C4FDA18B85C3F3270080232CF4FC032792
:1022140084FD9387419998C3938741999C43DD9B9F
:102224007390078001000100B717004093870704EB
:10223400130770052380E700B7170040938707044E
:10224400130780FA2380E70001000100B71700405C
:102254009387C7027D572390E700B7170040938701
:10226400070423800700F32700802320F4FE0327BC
:1022740004FE938741999C43A18BD98F7390078067
:102284009387419923A0070001000100F3270080F0
:102294002324F4FE832784FEA18B85C3F3270080C7
:1022A4002322F4FE032744FE9387419998C393871E
:1022B40041999C43DD9B7390078001000100B7178F
:1022C400004093870704130770052380E700B717BE
:1022D400004093870704130780FA2380E700010076
:1022E4000100B71700409387670483C7070013F7FB
:1022F400F70FB71700409387670413671700137726
:10230400F70F2380E700B717004093870704238063
:102314000700F32700802326F4FE0327C4FE9387D7
:1023240041999C43A18BD98F7390078093874199DE
:1023340023A007000100010001A0797122D6001832
:10234400AA87231FF4FC8357E4FD2326F4FE01002F
:102354008327C4FEFD172326F4FE8327C4FEE5FB72
:102364000100325445618280797106D622D4001866
:10237400AA87231FF4FC231704FE09A81305803E33
:102384006D3F8357E4FE85072317F4FE0357E4FEED
:102394008357E4FDE364F7FE0100B2502254456123
:1023A40082802303048015472303E4800100230271
:1023B400A480828083076480E3CE07FE2303048025
:1023C400828083076480E3CE07FE034544808280D5
:1023D40083076480E3CE07FE2302A4808280411138
:1023E40026C44AC24EC006C61377F50BAD47AA8968
:1023F4002E8995446306F70019456537653F8D447A
:102404004E854537FD59FD1463983401B240A2440A
:102414001249824941018280135509011375F50F50
:10242400453F2209CDB7011126CC06CEB7040800DA
:1024340051371545BD37713769372AC6A53F32452F
:102444009377150089EB136515001375F50FF240AA
:10245400E24405618280FD14E9FC0145CDBF397178
:1024640026DC4ADA4ED852D656D45AD25ED006DE8C
:1024740062CE66CCB7E700E07D5783AA070022C688
:1024840003AA470023A0E71823A2E718B7170040C0
:10249400130770052380E704130780FA2380E704F9
:1024A40083C74704930B75FFB684E20793FBFB0FC6
:1024B4008546AA892E8B328937240040E18701574B
:1024C40063FA76016308D500894613070002631393
:1024D400D5000157D98F93F7F70FB71C004023821B
:1024E400FC0411472303E4801305F00F5D3D094C00
:1024F400D135636D7C11B7050700DA95378707007E
:10250400795563F2E504B3879500636EF702370BE0
:102514000800A94733EB65016399F90689E481440E
:10252400513D26850DA0DA850945553D050903452C
:10253400F9FFFD14050B693D81C49377FB0FFDF78B
:10254400DD3569FD7D55B7170040130770052380FD
:10255400E704130780FA2380E70403C74704418B89
:102564002382E704F250B7E700E023A0571123A227
:102574004711E25432445259C259325AA25A125B98
:10258400825B724CE24C21618280A5476395F90617
:1025940085691309F00FB3069900B3742B01B6943F
:1025A4001349F9FFB3749900856B33796901416B61
:1025B4009387F9FFB3F7270199E363FC340193D9B7
:1025C4004900C147E3E637FF99BF0569C1697D1931
:1025D400D9B71305800D638869011305000263846C
:1025E400790113051008CA85DD3B353D21DD4E997F
:1025F400B3843441D9B7DA852D45D533CA94E30081
:1026040099F205097D3BA30FA9FED5BF9387F9FF76
:1026140093F7F70F6361FC0C83C71C04130730089E
:10262400631FF70437070800636BEB04B3079B00D1
:10263400B706100063F5D704334BEB008947639367
:10264400F9068980D549E38C04ECDA850945413BD8
:1026540011090327C9FF91472320E48003076480FD
:10266400E34E07FE23033481FD17EDFBFD14110B2C
:1026740081C49377FB0FE9FF7D3371F5E1B5B7179B
:10268400004003C75704B70708001377070219E38C
:10269400B78707007955E378FBEA33079B00E3FF2C
:1026A400E7F855B58547E382F9F2DA852D45053B10
:1026B4009389F4FFE38504E6293393F7390091EB1A
:1026C400832604800327090093074900E39AE6E47C
:1026D4003E89CE84F1BFB5476396F9001305900B8C
:1026E400C93135BDB1471305B00AE38BF9FE9947EB
:1026F4006391F904B7050800B365BB002D45C531E6
:1027040081448D4BA14975396396740183270480F4
:102714002320F9008504E39834FF832704801317EA
:102724002B01635507002312F900D5BB2322F900BE
:10273400FDB39D476399F90281451305B004453102
:10274400BD442320090023220900FD599D3993F734
:102754007400CA9703C70700FD14398D2380A700AE
:10276400E39634FF6DBBA1476392F9046D3981444C
:10277400630D0B008D479304C0036308FB009304AF
:10278400000563048B01930440041375C507E30833
:1027940095D81945393139390545213126850D3901
:1027A40009453D314931E31C05D669BB914763991D
:1027B400F90013056006F536F53E130590090DB7CB
:0827C400E38F09D4F154A9BB15
:1027CC009711002093814192176100201301C1825F
:1027DC001305400097E5FF1F93850582170600201F
:1027EC00130606FE63FAC5008322050023A05500DC
:1027FC0011059105E3EAC5FE1745060013050571A1
:10280C00970500209385C5FB1386C18463FAC50028
:10281C008322050023A0550011059105E3EAC5FEAE
:10282C001385C184972500209385858F6377B50028
:10283C00232005001105E36DB5FEFD42739002BC2B
:10284C008D4273904280930280087390023097D22D
:10285C00FF1F9382627A93E232007390523097E2B8
:10286C00FF1F9382625373901234730020303367CE
:10287C00B500FD530D8B79E7B7877F7F9387F7F70B
:10288C0010419441B372F6003363F600BE92B3E28A
:10289C0062006397720C6318D6065041D441B37230
:1028AC00F6003363F600BE92B3E262006398720ADC
:1028BC00631BD60410459445B372F6003363F600DF
:1028CC00BE92B3E262006391720A631ED602504557
:1028DC00D445B372F6003363F600BE92B3E26200E5
:1028EC00639A72086311D60210499449B372F600C8
:1028FC003363F600BE92B3E2620063937208510533
:10290C00D105E30FD6F61317060193970601631C46
:10291C00F7001357060193D706013305F74093755B
:10292C00F50F91E982804183C1833305F74093759C
:10293C00F50F91E182801377F70F93F7F70F3305BB
:10294C00F74082800346050083C605000505850512
:10295C006313D60065FA3305D640828011059105C4
:10296C00E312D6FE014582802105A105E31CD6FCAD
:10297C00014582803105B105E316D6FC0145828004
:10298C004105C105E310D6FC01458280011106CE3C
:10299C0022CC26CA0010EFE0A1062326A4FE154582
:1029AC00EF707101AA840145EF70F100AA87173707
:1029BC0006001307E7C485463E86A6850325C4FE9C
:1029CC00EFC002202324A4FE832584FE0325C4FE2D
:1029DC00EF70C403D9200145EFD0441A2A8793879E
:1029EC00818698C39387C1849C433E85EF6054795C
:1029FC000100F2406244D24405618280011106CE8E
:102A0C0022CC00102326A4FE2324B4FE2322C4FED1
:102A1C00032644FE832584FE0325C4FEEF20D03616
:102A2C000100F240624405618280011106CE22CC85
:102A3C0000102326A4FE2324B4FE2322C4FE032666
:102A4C0044FE832584FE0325C4FEEF20D03D010007
:102A5C00F240624405618280797106D622D4001856
:102A6C00232EA4FC0325C4FDEF20704EAA87A307D8
:102A7C00F4FE0347F4FE85476314F700854709A865
:102A8C000347F4FE89476314F700894711A0814777
:102A9C003E85B250225445618280411106C622C443
:102AAC0000080145EFD0840D2A879387C18498C311
:102ABC009387C1849C43C1453E85EFD0841F938787
:102ACC00C1849C433E85EF30505A2A8793870185F9
:102ADC0098C3938701859C43930550033E85EF1063
:102AEC000557938701859C43E9453E85EF10255C8E
:102AFC00938701859C439305D0023E85EF00F568D2
:102B0C00938701859C43930560FB3E85EF00F56D33
:102B1C00938701859C43A5453E85EF10657E938781
:102B2C0001859C43930500403E85EFD08408938734
:102B3C0001859C43C1453E85EFD0A4179387C18482
:102B4C009C433E85E5292A879387418598C39387C3
:102B5C0041859C43930560053E85EF10454F938757
:102B6C0041859C43930580053E85EF104554938722
:102B7C0041859C43930580FC3E85EF00156193874E
:102B8C0041859C43930540FD3E85EF001566938778
:102B9C0041859C43A5453E85EF10857693874185FD
:102BAC009C43930520033E85EF0030239387C1841B
:102BBC009C433E85EF70005C2A879387818598C380
:102BCC00938781859C439305E0053E85EF1025484E
:102BDC0093878185984389679385177D3A85EF1094
:102BEC00054D938781859C43930520033E85EF001B
:102BFC00D559938781859C43B9553E85EF00F55E89
:102C0C00938781859C43A5453E85EF10656F93871F
:102C1C0081859C43930500403E85EFC09479938752
:102C2C00C1849C433E85EFF0A03D2A879387C185E4
:102C3C0098C39387C1859C43014681453E857D3B66
:102C4C009387C1859C433E85013DAA873E87894772
:102C5C006319F7009387C1859C43014681453E85E6
:102C6C00E9339387C1859C43930560093E85EF103A
:102C7C00053E9387C1859C43A9453E85EF102543AE
:102C8C009387C1859C4391453E85EF0015509387F2
:102C9C00C1859C43D9453E85EF0035559387C18549
:102CAC009C43A5453E85EF10A5659387C1849C4345
:102CBC001306A0059305803E3E85EFF071082A8728
:102CCC009387018698C3938701869C439305900351
:102CDC003E85EF10C537938701869C4393054002D0
:102CEC003E85EF10C53C938701869C4385553E85F8
:102CFC00EF00B549938701869C43930530043E85CC
:102D0C00EF00B54E938701869C43A5453E85EF1099
:102D1C00255F938701869C4389453E85EFC0747976
:102D2C009387C1849C431306A0059305803E3E8582
:102D3C00EFF011012A879387418698C393874186C8
:102D4C009C43930550023E85EF1065309387418676
:102D5C009C43930540023E85EF1065359387418671
:102D6C009C43D9453E85EF005542938741869C4351
:102D7C00930550043E85EF005547938741869C434D
:102D8C00A5453E85EF10C557938741869C438945E1
:102D9C003E85EFC014720100B24022444101828092
:102DAC00797106D622D40018232EA4FC232CB4FC53
:102DBC004146832584FD0325C4FDEF70F524AA87C5
:102DCC002326F4FE8327C4FEC207C1873E85B2507A
:102DDC00225445618280797106D622D40018232EA4
:102DEC00A4FC232CB4FC4546832584FD0325C4FD9B
:102DFC00EF709521AA872326F4FE8327C4FEC20711
:102E0C00C1873E85B250225445618280797106D6C5
:102E1C0022D40018232EA4FC232CB4FC4946832571
:102E2C0084FD0325C4FDEF70351EAA872326F4FE0E
:102E3C008327C4FEC207C1873E85B2502254456128
:102E4C008280797106D622D40018232EA4FC232C60
:102E5C00B4FC4D46832584FD0325C4FDEF70D51AC3
:102E6C00AA872326F4FE8327C4FEC207C1873E85AA
:102E7C00B250225445618280797106D622D4001852
:102E8C00232EA4FC232CB4FC13065003832584FDB1
:102E9C000325C4FDEF705517AA872326F4FE83275C
:102EAC00C4FEC207C1873E85B25022544561828060
:102EBC00797106D622D40018232EA4FC232CB4FC42
:102ECC0013068003832584FD0325C4FDEF70D51301
:102EDC00AA872326F4FE8327C4FEC207C1873E853A
:102EEC00B250225445618280797106D622D40018E2
:102EFC00232EA4FC232CB4FC13060004832584FD90
:102F0C000325C4FDEF705510AA872326F4FE8327F2
:102F1C00C4FEC207C1873E85B250225445618280EF
:102F2C00797106D622D40018232EA4FC232CB4FCD1
:102F3C0013061004832584FD0325C4FDEF70D50C06
:102F4C00AA872326F4FE8327C4FEC207C1873E85C9
:102F5C00B250225445618280797106D622D4001871
:102F6C00232EA4FC232CB4FC13062004832584FDFF
:102F7C000325C4FDEF705509AA872326F4FE832789
:102F8C00C4FEC207C1873E85B2502254456182807F
:102F9C00797106D622D40018232EA4FC232CB4FC61
:102FAC0013063004832584FD0325C4FDEF70D5057D
:102FBC00AA872326F4FE8327C4FEC207C1873E8559
:102FCC00B250225445618280797106D622D4001801
:102FDC00232EA4FC232CB4FC13060005832584FDAE
:102FEC000325C4FDEF705502AA872326F4FE832720
:102FFC00C4FEC207C1873E85B2502254456182800F
:10300C00797106D622D40018232EA4FC232CB4FCF0
:10301C0013061005832584FD0325C4FDEF70C57EC2
:10302C00AA872326F4FE8327C4FEB337F00093F758
:10303C00F70F3E85B250225445618280797106D6D5
:10304C0022D40018232EA4FC8325C4FD17F50500FB
:10305C0013058587EFE0A44E2326A4FE0325C4FEAA
:10306C00EFE0246C8327C4FE3E85B25022544561A8
:10307C008280797106D622D40018232EA4FCAE8748
:10308C00231DF4FC8327C4FD2324F4FE0357A4FD65
:10309C009307801663F8E7008357A4FD938787E9AD
:1030AC00231DF4FC832784FE03D78702832784FE29
:1030BC0083D76702B307F740C207C1832317F4FE17
:1030CC00832784FE03D787028357A4FDB307F740F9
:1030DC00C207C1832316F4FE8317E4FE63DA0700EC
:1030EC008357E4FE93878716C207C1832317F4FE28
:1030FC008317C4FE63DA07008357C4FE93878716D1
:10310C00C207C1832316F4FE0317C4FE8317E4FE23
:10311C00B307F74013D7F741B98F998F1307400BBB
:10312C006357F7000325C4FDEF20755A91A80317C8
:10313C00C4FE8317E4FE6351F702832784FE83D712
:10314C0067020357A4FDB70602003A86BE85032525
:10315C00C4FDEF1000462DA00317E4FE8317C4FE38
:10316C006350F702832784FE03D767028357A4FDBD
:10317C00B70602003A86BE850325C4FDEF106043F6
:10318C000325C4FDEF100058832784FE0357A4FDCC
:10319C002393E7020325C4FDEF10C0560100B25083
:1031AC00225445618280797106D622D40018232ED0
:1031BC00A4FCAE87231DF4FC8327C4FD2324F4FE5A
:1031CC000357A4FD9307801663F8E7008357A4FD0B
:1031DC00938787E9231DF4FC832784FE03D787029A
:1031EC00832784FE83D76702B307F740C207C183E6
:1031FC002317F4FE832784FE83D767020357A4FDAD
:10320C00B307F740C207C1832316F4FE8317E4FE0D
:10321C0063DA07008357E4FE93878716C207C183DE
:10322C002317F4FE8317C4FE63DA07008357C4FE2A
:10323C0093878716C207C1832316F4FE0317C4FEB7
:10324C008317E4FEB307F74013D7F741B98F998F73
:10325C001307400B6357F7000325C4FDEF203547D8
:10326C0091A80317C4FE8317E4FE6351F70283276A
:10327C0084FE03D787028357A4FDB70602003A8663
:10328C00BE850325C4FDEF10C0322DA00317E4FE4C
:10329C008317C4FE6350F702832784FE83D787020B
:1032AC000357A4FDB70602003A86BE850325C4FD6C
:1032BC00EF1020300325C4FDEF10C044832784FE9B
:1032CC000357A4FD2394E7020325C4FDEF108043AC
:1032DC000100B250225445618280011106CE22CCED
:1032EC0000102326A4FEAE8732872315F4FEBA877E
:1032FC002314F4FE835784FEBE850325C4FE653576
:10330C008357A4FEBE850325C4FEA5330100F240FD
:10331C00624405618280797106D622D40018232E6E
:10332C00A4FCAE87231DF4FC8327C4FD2324F4FEE8
:10333C000357A4FD9307801663F8E7008357A4FD99
:10334C00938787E9231DF4FC832784FE03D7C702E8
:10335C00832784FE83D7A702B307F740C207C18334
:10336C002317F4FE832784FE03D7C7028357A4FDDB
:10337C00B307F740C207C1832316F4FE8317E4FE9C
:10338C0063DA07008357E4FE93878716C207C1836D
:10339C002317F4FE8317C4FE63DA07008357C4FEB9
:1033AC0093878716C207C1832316F4FE0317C4FE46
:1033BC008317E4FEB307F74013D7F741B98F998F02
:1033CC001307400B6357F7000325C4FDEF2035307E
:1033DC0081A80317C4FE8317E4FE6350F70283270A
:1033EC0084FE83D7A7020357A4FD81463A86BE8587
:1033FC000325C4FDEF10E01B25A00317E4FE831783
:10340C00C4FE635FF700832784FE03D7A7028357AC
:10341C00A4FD81463A86BE850325C4FDEF106019D4
:10342C00832784FE0357A4FD2395E7020325C4FDDF
:10343C00EF1070000100B250225445618280797106
:10344C0006D622D40018232EA4FCAE87231DF4FC30
:10345C008327C4FD2324F4FE0357A4FD9307801691
:10346C0063F8E7008357A4FD938787E9231DF4FCD9
:10347C00832784FE03D7C702832784FE83D7A70242
:10348C00B307F740C207C1832317F4FE832784FEDA
:10349C0083D7A7020357A4FDB307F740C207C18324
:1034AC002316F4FE8317E4FE63DA07008357E4FE69
:1034BC0093878716C207C1832317F4FE8317C4FEB4
:1034CC0063DA07008357C4FE93878716C207C1834C
:1034DC002316F4FE0317C4FE8317E4FEB307F7406C
:1034EC0013D7F741B98F998F1307400B6357F70028
:1034FC000325C4FDEF20B51D81A80317C4FE831757
:10350C00E4FE6350F702832784FE03D7C702835778
:10351C00A4FD81463A86BE850325C4FDEF106009E3
:10352C0025A00317E4FE8317C4FE635FF70083270F
:10353C0084FE83D7C7020357A4FD81463A86BE8515
:10354C000325C4FDEF10E006832784FE0357A4FD7A
:10355C002396E7020325C4FDEF10E06D0100B25085
:10356C00225445618280011106CE22CC0010232604
:10357C00A4FEAE8732872315F4FEBA872314F4FE1B
:10358C00835784FEBE850325C4FE553D8357A4FE98
:10359C00BE850325C4FE41330100F240624405613F
:1035AC008280797106D622D40018232EA4FCAE8713
:1035BC00231DF4FC8327C4FD2326F4FE8327C4FEBD
:1035CC000357A4FD2392E7020325C4FDEF20351019
:1035DC000100B250225445618280797106D622D402
:1035EC000018232EA4FCAE87231DF4FC8327C4FDF6
:1035FC002326F4FE8327C4FE8397E7020317A4FD5A
:10360C006309F7068327C4FE839727033E868357F7
:10361C00A4FD93960701C1861317060141876353D6
:10362C00D700B2872315F4FE8327C4FE83970703C4
:10363C003E868357A4FE93960701C1861317060195
:10364C00418763D3E600B2872315F4FE8327C4FEBB
:10365C008397E7020317A4FE630FF7008327C4FECA
:10366C000357A4FE2397E7020325C4FDEF10A05CCB
:10367C0021A0010011A00100B250225445618280AA
:10368C00011122CE00102326A4FE8327C4FE8397AB
:10369C00E7023E85724405618280797106D622D498
:1036AC000018232EA4FC232CB4FC832784FD232692
:1036BC00F4FE8327C4FE239207028327C4FE13075C
:1036CC0070082395E7028327C4FE1307D0022396C4
:1036DC00E7028327C4FE130770082393E7028327AE
:1036EC00C4FE1307E0102394E7028327C4FE03C72C
:1036FC004703659B238AE7028327C4FE61772397E0
:10370C00E7028327C4FE03C7470313678700238A96
:10371C00E7028327C4FE239807028327C4FE1307FE
:10372C0040062399E7028327C4FE03C74703799B0E
:10373C00238AE7028327C4FE1307002D98DFEFD0FE
:10374C0041662A878327C4FED8DF8327C4FE83D72C
:10375C0087021397070141878327C4FE2390E70450
:10376C008327C4FE03C747033D9B238AE702894591
:10377C00032584FDEFC0E44393050031032584FD4C
:10378C00EFC02453B545032584FDEF20B52B010074
:10379C00B250225445618280317106DF22DD8001F6
:1037AC002326A4F42324B4F4832584F417E505001C
:1037BC0013058511EF60D442AA87A303F4FE0347D7
:1037CC0074FE8547E31DF728032584F4EF60344E1F
:1037DC002320A4FE032584F4EF60744A232EA4FC5A
:1037EC00032584F4EF60B449232CA4FC032704FEC6
:1037FC0089476311F75EEF70546F232AA4FC83276B
:10380C0044FDE3800726032544FDEF70546F232805
:10381C00A4FC032704FD8547E317F724930744F71B
:10382C00BE85032544FDEF8064091307E4F6930776
:10383C0004F73A86BE850325C4FDEF001074831788
:10384C0044F7139707014183831704F7C207C18319
:10385C00B307F740C207C183C207C187231AF4F626
:10386C00831764F7139707014183831724F7C20763
:10387C00C183B307F740C207C183C207C187231BAB
:10388C00F4F6832784FD83C74703858B93F7F70FE3
:10389C0063940710B70502000325C4FDEFF0CFF2C7
:1038AC00AA872317F4FC8317E4F6139707014183C7
:1038BC008357E4FCB307F740C207C183C207C18733
:1038CC002317F4F6C1650325C4FDEFC0C456AA87BF
:1038DC008DC38317E4F61397070141838357E4FCE8
:1038EC00B307F740C207C183C207C1872317F4F699
:1038FC00B9A08317E4F61397070141838317E4F605
:10390C0093D6F7418D8AB6978987C207C187BE8542
:10391C008357E4FC13960701418693960501C186F3
:10392C006353D600AE87C207C187C207C183B307F2
:10393C00F740C207C183C207C1872317F4F6831768
:10394C00E4F66345F00085472317F4F6831744F734
:10395C003E87831744F73307F702831764F7BE8655
:10396C00831764F7B387F6023E978317E4F6BE8697
:10397C008317E4F6B387F60263D0E702832784FD4E
:10398C0003C7470313671700238AE702EFD061418F
:10399C002A87832784FDD8DF832784FD83C74703C9
:1039AC00858B93F7F70FE382070C831744F789E7AE
:1039BC00831764F7E38D070A832784FD83D7C70237
:1039CC002316F4FE832784FD03D7C702832784FDC7
:1039DC0083D7A702637CF700832784FD83D7C702B4
:1039EC0093878716C207C1832316F4FE831764F7E7
:1039FC003E87831744F7BE853A85EF709109AA87F5
:103A0C002317F4FE0357E4FE832784FD83D7470274
:103A1C00B307F740C207C1832317F4FE0357E4FE34
:103A2C00832784FD83D7A702B307F740C207C1835E
:103A3C002317F4FE8317E4FE63DA07008357E4FED2
:103A4C0093878716C207C1832317F4FE8317E4F606
:103A5C003E87930740273307F70293074006B35777
:103A6C00F7022324F4FC0145EFD0C106AA873E8758
:103A7C0093072003B307F702138707059307F01387
:103A8C0063F6E7020145EFD0E104AA873E8793076E
:103A9C002003B307F702138707059307000A335770
:103AAC00F70293078016B307F70219A09307801645
:103ABC00032784FCB3D7E7022322F4FC832784FD7D
:103ACC00DC5B8D83858B93F7F70F2320F4FC831736
:103ADC00E4FE032644FCBE850325C4FDEF10404CD8
:103AEC00AA87A30FF4FA8347F4FB93C7170093F745
:103AFC00F70F639007780357C4FE832784FD83D7A1
:103B0C00A702B307F740C207C183231EF4FA832729
:103B1C0084FD83970704139707014183832784FD52
:103B2C0083D7A702B307F740C207C183231DF4FA5A
:103B3C000357E4FE8357A4FBB307F740C207C183C6
:103B4C002315F4FE8317A4FE13D7F741B98F998F71
:103B5C00130780116352F702832784FD83C7470341
:103B6C00A18B93F7F70F81C7231704FE99A08357F6
:103B7C00C4FB2317F4FE35A8832784FD83C74703B2
:103B8C00C18B93F7F70F95E7832784FD83C7470312
:103B9C00A18B93F7F70F91CB8357C4FBB307F0407E
:103BAC00C207C1832317F4FE29A08357C4FB231734
:103BBC00F4FE032704FC8547631FF702832784FD6B
:103BCC0083C74703A18B93F7F70F95E7832784FDF2
:103BDC0083C74703C18B93F7F70F91EF8317A4FEAD
:103BEC0013D7F741B98F998F130780116355F700DD
:103BFC00231704FE05A8832704FC8DE7832784FD87
:103C0C0083C74703A18B93F7F70F89CF832784FDD5
:103C1C0083C74703C18B93F7F70F89E78357C4FB1F
:103C2C002317F4FE0357E4FE8357A4FBB307F740B6
:103C3C00C207C1832315F4FE832784FDDC5F3E8518
:103C4C00EFD06119232AA4FA832784FD985F832778
:103C5C0044FB3307F7029307803EB357F70223194F
:103C6C00F4FA0317A4FE835724FB63D7E7008357AA
:103C7C0024FB2315F4FE0DA00317A4FE835724FB8D
:103C8C00B307F040635AF700835724FBB307F040A7
:103C9C00C207C1832315F4FE0357A4FB8357A4FE6C
:103CAC00BA97C207C1832317F4FE8317C4FE0327F8
:103CBC0084FD0357A702998F13973700832784FD40
:103CCC0083972703BE86832784FD83970703B387D7
:103CDC00F640B347F7022326F4FA8327C4FA910778
:103CEC0091872326F4FA8327C4FA1397070141839B
:103CFC008357E4FEBA97C207C1832317F4FE8327C8
:103D0C0084FD03D7A7028357E4FEBA97C207C18389
:103D1C002317F4FE832784FD83D7E7022315F4FAD7
:103D2C000315E4FE832784FD83D7A702BE85031603
:103D3C00C4FE832784FD83970703BE86832784FDF7
:103D4C00839727033E87EF70B100AA872314F4FAF8
:103D5C000325C4FDEFF0DF92AA873E87831784FA10
:103D6C006383E704EFD0E1032A87832784FDD8DF40
:103D7C00831784FABE850325C4FDEFF01F86031755
:103D8C0084FA8317A4FA6300F7020146F145032570
:103D9C00C4FDEF60445BAA87A303F4FE034774FEE3
:103DAC008547631AF74C832784FD83970703031712
:103DBC0084FA630AF700832784FD8397270303178C
:103DCC0084FA631DF74AEFC0D17D2A87832784FDCF
:103DDC00D8DF6DA1032704FEA1476307F700032773
:103DEC0004FE8D47631DF704832784FD03C7470337
:103DFC00799B238AE7020325C4FDEFC0440E2320E0
:103E0C00A4F8032504F8EF706433AA87A30FF4F623
:103E1C00EF70B40DAA873E85EF70740E232CA4F6B8
:103E2C00032784F79147631AF7448347F4F76386B3
:103E3C0007448145032504F8EF70E4213DA90327CD
:103E4C0004FEB547631AF70A032584F4EF60E467B0
:103E5C00AA8783C70700A303F4FA832784FD83D7BB
:103E6C00E7022312F4FA030774FACD476307F7004D
:103E7C00030774FAC5476314F7020325C4FDEFF07A
:103E8C003F80AA87C207C1838507C207C183C207C7
:103E9C00C187BE850325C4FDEFF02FF425A80307C9
:103EAC0074FAD1476307F700030774FAC947631321
:103EBC00F7020325C4FDEFF0AFFCAA87C207C1834C
:103ECC00FD17C207C183C207C187BE850325C4FD88
:103EDC00EFF0AFF0832784FD8397E702031744FAD2
:103EEC00630EF7380146F1450325C4FDEF60A44588
:103EFC00AA87A303F4FE59A6032704FEC54763173C
:103F0C00F718032584F4EF60445C2320A4FA13070C
:103F1C0064F6930784F63A86BE850325C4FDEF004C
:103F2C00D005231404FE8327C4FD9C4781CB832733
:103F3C00C4FD9C4783D747012314F4FE8145032518
:103F4C00C4FDEFF06F88AA87231FF4F8831764F67B
:103F5C001397070141838356E4F9835784FEB69780
:103F6C00C207C183B307F740C207C183C207C18729
:103F7C002313F4F6831784F61397070141838317F1
:103F8C0064F6C207C183B307F740C207C183939598
:103F9C000701C1858317A4F6139707014183831783
:103FAC0064F6C207C183B307F740C207C1831396F7
:103FBC0007014186831784F6139707014183831702
:103FCC0064F6C207C183BA97C207C18393960701EF
:103FDC00C1868317A4F6139707014183831764F6F0
:103FEC00C207C183BA97C207C183139707014187E0
:103FFC009307C4F53E85EF40510E832704FA944392
:10400C001307C4F5A1671386F7FFB6853A85EF5001
:10401C004116AA8791C7832704FA23820700B9ACFB
:10402C00835784FE86071397070141838357E4F96E
:10403C00BA97C207C18393960701C186835784FE42
:10404C0086071397070141838357E4F9BA97C20790
:10405C00C1831397070141879307C4F53A86B68548
:10406C003E85EF40B11A832704FA94431307C4F535
:10407C00A1671386F7FFB6853A85EF50810FAA87A3
:10408C003E87832704FA2382E700CDAA032704FE88
:10409C00CD47631DF71A81450325C4FDEFE01FD7FB
:1040AC00AA87231EF4F881450325C4FDEFE07FD9D0
:1040BC00AA87231DF4F881450325C4FDEFE05FCEEC
:1040CC00AA87231CF4F881450325C4FDEFE0BFD07B
:1040DC00AA87231BF4F8035684F9835764F9939643
:1040EC000701C18613170601418763D3E600B28727
:1040FC0093950701C1850356C4F98357A4F9939688
:10410C000701C18613170601418763D3E600B28706
:10411C00C207C1873E86AE8793960701C1861317E7
:10412C000601418763D3E600B287231AF4F8B7057A
:10413C0003000325C4FDEFE07FCDAA872319F4F813
:10414C00B70503000325C4FDEFE0BFCFAA872318F2
:10415C00F4F8B70503000325C4FDEFE07FC4AA877C
:10416C002317F4F8B70503000325C4FDEFE0BFC621
:10417C00AA872316F4F80356E4F88357C4F89396E9
:10418C000701C18613170601418763D3E600B28786
:10419C0093950701C185035624F9835704F9939627
:1041AC000701C18613170601418763D3E600B28766
:1041BC00C207C1873E86AE861397060141879317C7
:1041CC000601C1876353F700B28693970601C18736
:1041DC00C207C1838907C207C1832315F4F80357AB
:1041EC00A4F8835744F9B307F740C207C1832314DB
:1041FC00F4F80325C4FDEF007045AA871397070157
:10420C004183835784F8BA97C207C1832314F4F807
:10421C00032584F4EF60642B2322A4F8832744F84D
:10422C00839707003E86835784F893960701C186CF
:10423C0013170601418763D3E600B2871397070172
:10424C004187832744F82390E7000DA8032704FE39
:10425C00D5476315F702032584F42D2005A0010032
:10426C0031A8010021A8010011A8010001A801003A
:10427C0031A0010021A0010011A00100FA506A54E4
:10428C0029618280157186CFA2CD80112326A4F2DC
:10429C000325C4F2EF60A41E2326A4FE8327C4FECC
:1042AC002324F4FE0325C4F2EF60A44E2322A4FEC3
:1042BC00130724FD930744FD3A86BE850325C4FEEF
:1042CC006D29930784F8832544FE3E85EFE0747EC8
:1042DC00831724FD635AF00A930784F73E85EFD0C9
:1042EC005351930784F73E8681450325C4FEEFE0C6
:1042FC00B44A232E04FA97D705009387E75C23264C
:10430C00F4F8232804F8930744FD2326F4FA8317C2
:10431C0024FD2312F4FC930784F72324F4FA930767
:10432C0084F83E86E9450325C4FEEF60C40183177B
:10433C0044FC93960701C182832784FE03D7A7020E
:10434C00832784FE83D74702BA97139507014181CF
:10435C00832784FE03D7C702832784FE83D74702B3
:10436C00BA97C207C183130644FD930584F72A87C5
:10437C00032544FEEFD0334C930784F83E86ED457D
:10438C000325C4FEEF50347CB70502000325C4FEA0
:10439C00EFE0DFA7AA872311F4FEB705020003257F
:1043AC00C4FEEFE01FAAAA872310F4FEB705020093
:1043BC000325C4FEEFE0DF9EAA87231FF4FCB7059C
:1043CC0002000325C4FEEFE01FA1AA87231EF4FC04
:1043DC00831724FD1397070141838355E4FD83570D
:1043EC00C4FD13960701418693960501C18663535C
:1043FC00D600AE87139507014185835524FE83575C
:10440C0004FE13960701418693960501C1866353FA
:10441C00D600AE87C207C187BE852A8693160601D1
:10442C00C18693970501C18763D3F6002E86931737
:10443C000601C187C207C183B307F740C207C18316
:10444C00231DF4FC8317A4FD6358F00C930784F729
:10445C003E85EFD0133A930784F73E86B7050200EA
:10446C000325C4FEEFE05433B7070200232EF4FA01
:10447C0097D70500938747452326F4F885472328CB
:10448C00F4F8930744FD2326F4FA8357A4FD231272
:10449C00F4FC930784F72324F4FA930784F83E86FC
:1044AC00E9450325C4FEEF50146A0317A4F78317DC
:1044BC0044FC63D6E700831744FC231DF4F68317F2
:1044CC0044FC93960701C182832784FE03D76702BD
:1044DC00832784FE83D74702BA971395070141813E
:1044EC00832784FE03D78702832784FE83D7470262
:1044FC00BA97C207C183130644FD930584F72A8734
:10450C00032544FEEFD03333930784F83E86ED4504
:10451C000325C4FEEF503463031724FD930604F700
:10452C00930744FD3A86BE850325C4FE212B9307D1
:10453C0084F33E85EF30F400930784F33E86B70591
:10454C0003000325C4FEEFE02409B7070300232E64
:10455C00F4FA97D70500938727372326F4F8894771
:10456C002328F4F8930704F7232AF4F8930784F329
:10457C00232CF4F8930784F83E86E9450325C4FE02
:10458C00EF50745C130704F7930784F33A86BE85E7
:10459C00032544FEEF309407930784F83E86ED45DF
:1045AC000325C4FEEF50345A0100FE406E442D61C9
:1045BC008280397106DE22DC80002326A4FCAE87C3
:1045CC0032872322D4FC2315F4FCBA872314F4FC81
:1045DC000325C4FCEF10553BAA8793C7170093F72C
:1045EC00F70F639A07108327C4FC2326F4FE0357A6
:1045FC00A4FC835784FC6302F7100357A4FC9307B5
:10460C00801663F8E7008357A4FC938787E923158A
:10461C00F4FC035784FC9307801663F8E700835778
:10462C0084FC938787E92314F4FC8327C4FE03D707
:10463C0047028357A4FCBA972315F4FC8327C4FEC6
:10464C0003D74702835784FCBA972314F4FC03570F
:10465C00A4FC9307801663F8E7008357A4FC9387A8
:10466C0087E92315F4FC035784FC9307801663F841
:10467C00E700835784FC938787E92314F4FC130722
:10468C0064FE930704FE3A86BE850325C4FCF52020
:10469C00832544FC0325C4FCEFE01F93AA87231554
:1046AC00F4FE832544FC0325C4FCEFE07F95AA8728
:1046BC002314F4FE031504FE831524FE831764FEF5
:1046CC00139607014182831784FEB337F00013F869
:1046DC00F70F930884FD8317A4FE035784FC8356BD
:1046EC00A4FCEFD0B31D930784FDBE850325C4FC49
:1046FC00EF10257621A0010011A00100F2506254A8
:10470C0021618280397106DE22DC80002326A4FC24
:10471C00130764FE930784FE3A86BE850325C4FC0A
:10472C00A928031764FE9306C4FD930784FE3A86FA
:10473C00BE850325C4FC39260325C4FC012FAA879A
:10474C002317F4FE8317E4FE635DF0008316E4FE8A
:10475C000317E4FE9307C4FD3686BA853E85EF4009
:10476C00E12A9307C4FDBE850325C4FCEF10656EDA
:10477C000100F250625421618280797106D622D4F4
:10478C0026D20018232EA4FC232CB4FC232AC4FC10
:10479C0081450325C4FDEFE06FE7AA872317F4FEDC
:1047AC0081450325C4FDEFE0CFE9AA872316F4FE6B
:1047BC0081450325C4FDEFE0AFDEAA872315F4FE87
:1047CC0081450325C4FDEFE00FE1AA872314F4FE15
:1047DC000325C4FDEF00C55BAA873E878317E4FE63
:1047EC001D8F8317C4FEB304F7400325C4FDEF00EF
:1047FC00655CAA873E878317A4FE1D8F831784FEF2
:10480C00B307F74063D6F4020325C4FDEF00455807
:10481C00AA873E878317E4FE1D8F8317C4FEB30758
:10482C00F74013D7F701BA978587C207C18725A030
:10483C000325C4FDEF000558AA873E878317A4FE05
:10484C001D8F831784FEB307F74013D7F701BA9770
:10485C008587C207C1872313F4FE8327C4FD839782
:10486C004701139707014183835764FEBA97139747
:10487C00070141838357E4FEBA97C207C18313979C
:10488C0007014187832784FD2390E7008327C4FD1C
:10489C0083976701139707014183835764FEBA9787
:1048AC001397070141838357A4FEBA97C207C183AC
:1048BC00139707014187832784FD2391E700832702
:1048CC0044FD99C7832744FD035764FE2390E700FA
:1048DC000100B2502254925445618280797122D6E3
:1048EC000018232EA4FC8327C4FD2322F4FE832767
:1048FC0044FE83D747022317F4FE832744FE83C765
:10490C004703998B93F7F70F99EB832744FE03D753
:10491C0087028357E4FEBA972317F4FE31AA832744
:10492C0044FE83C74703998B13F7F70F9147631C1A
:10493C00F700832744FE03D767028357E4FEBA9738
:10494C002317F4FED5A8832744FE83C74703998B0E
:10495C0013F7F70F89476311F70E832744FE83D7AC
:10496C00C7022316F4FE832744FE03D7C70283270E
:10497C0044FE83D7A702637CF700832744FE83D7CA
:10498C00C70293878716C207C1832316F4FE8327B9
:10499C0044FE83D787022315F4FE832744FE03D7F6
:1049AC008702832744FE83D76702637CF700832743
:1049BC0044FE83D7870293878716C207C1832315CA
:1049CC00F4FE832744FE83D7A7023E878317C4FED9
:1049DC00BA9713D7F701BA9785872320F4FE83275C
:1049EC0044FE83D767023E87832704FE635CF7008F
:1049FC00832744FE03D767028357E4FEBA97231735
:104A0C00F4FE1DA88317A4FE032704FE635CF700C5
:104A1C00832744FE03D787028357E4FEBA972317F4
:104A2C00F4FE19A8832704FE1397070141838357CB
:104A3C00E4FEBA972317F4FE8317E4FE3E85325446
:104A4C0045618280397106DE22DC26DA800023265D
:104A5C00A4FC2324B4FCB2872320D4FC2313F4FC41
:104A6C00B70502000325C4FCEFE00FD6AA87231775
:104A7C00F4FE8317E4FE13D7F701BA978587231644
:104A8C00F4FE035764FC8357C4FEB307F740C20718
:104A9C00C1832313F4FC0325C4FC8935AA87231591
:104AAC00F4FE831464FC8357A4FE9387A705C20706
:104ABC00C183C207C1873E85EF60015BAA87B387BC
:104ACC00F402BD872314F4FE831464FC8317A4FE44
:104ADC003E85EF606159AA87B387F402BD87231323
:104AEC00F4FEB70503000325C4FCEFE02FB2AA8740
:104AFC002312F4FEB70503000325C4FCEFE06FB4EA
:104B0C00AA872311F4FEB70503000325C4FCEFE0CC
:104B1C002FA9AA872310F4FEB70503000325C4FCB4
:104B2C00EFE06FABAA87231FF4FC832784FC8397E9
:104B3C000700139707014183835784FEBA97139795
:104B4C0007014183835744FEB307F74013970701CE
:104B5C0041838357C4FEB307F740C207C183139741
:104B6C0007014187832704FC2390E700832784FCFB
:104B7C0083970700139707014183835784FEBA97E5
:104B8C00139707014183835724FEBA9713970701A4
:104B9C0041838357C4FEBA97C207C1831397070199
:104BAC004187832704FC2392E700832784FC8397A7
:104BBC002700139707014183835764FEBA97139715
:104BCC0007014183835704FEB307F740139707018E
:104BDC0041838357C4FEB307F740C207C1831397C1
:104BEC0007014187832704FC2391E700832784FC7A
:104BFC0083972700139707014183835764FEBA9765
:104C0C001397070141838357E4FDBA971397070164
:104C1C0041838357C4FEBA97C207C1831397070118
:104C2C004187832704FC2393E7000100F250625470
:104C3C00D25421618280797106D622D40018232E99
:104C4C00A4FC8327C4FD2324F4FE832784FE03974E
:104C5C00E702E1776307F71E832784FE83D7C70239
:104C6C002317F4FE832784FE03D7C702832784FE11
:104C7C0083D7A702637CF700832784FE83D7C70200
:104C8C0093878716C207C1832317F4FE832784FEFC
:104C9C00DC5B85838D8B93F7F70F05476388E70003
:104CAC0009476388E70E638E071269AA832784FE7F
:104CBC0083D7A7023E878317E4FEBA9713D7F70171
:104CCC00BA9785872313F4FE832784FE8397070303
:104CDC003E87832784FE83972703BA9713D7F70160
:104CEC00BA9785872312F4FE832784FE8397E70205
:104CFC00031744FE63DAE704832784FE8397E702F5
:104D0C003E85832784FE83970703BE85031644FEE6
:104D1C00832784FE83D7A702BE86831764FE3E8753
:104D2C00EF601103AA872316F4FE8357C4FEBE85D9
:104D3C000325C4FDEFE0EFB3835764FEBE85032566
:104D4C00C4FDEFE04FC6FDA0832784FE8397E702E6
:104D5C003E85831544FE832784FE839727033E8676
:104D6C00831764FE0317E4FEBE86EF60617EAA879C
:104D7C002316F4FE835764FEBE850325C4FDEFE0C5
:104D8C004FAF8357C4FEBE850325C4FDEFE0AFC112
:104D9C0055A0832784FE8397E7023E85832784FEF4
:104DAC0083970703BE85832784FE839727033E865C
:104DBC008316E4FE832784FE83D7A7023E87EF6029
:104DCC002179AA872316F4FE0357C4FE832784FE99
:104DDC0083D7C7023E86BA850325C4FDEFE0EFCF2B
:104DEC0091A8832784FE8397E7023E85832784FE60
:104DFC0083970703BE85832784FE839727033E860C
:104E0C00832784FE83D7A702BE868317E4FE3E87E2
:104E1C00EF600174AA872316F4FE832784FE83D7E0
:104E2C00A7020357C4FE3A86BE850325C4FDEFE0F6
:104E3C00CFCA0100832784FE0357C4FE2390E704E6
:104E4C0011A00100B250225445618280797106D6BE
:104E5C0022D40018232EA4FC231704FEB70503004C
:104E6C000325C4FDEFE04F88AA8713970701418300
:104E7C008357E4FEBA97C207C1832317F4FEB70524
:104E8C0003000325C4FDEFE0AF90AA871397070139
:104E9C0041838357E4FEBA97C207C1832317F4FEFC
:104EAC00B70503000325C4FDEFE08F87AA87635A7B
:104EBC00F000B70503000325C4FDEFE06F86AA8759
:104ECC0011A8B70503000325C4FDEFE06F85AA8781
:104EDC00B307F0401397070141838357E4FEBA9759
:104EEC00C207C1832317F4FEB70503000325C4FDD5
:104EFC00EFE08F86AA87635AF000B70503000325FD
:104F0C00C4FDEFE06F85AA8711A8B7050300032540
:104F1C00C4FDEFE06F84AA87B307F0401397070135
:104F2C0041838357E4FEBA97C207C1832317F4FE6B
:104F3C00231604FEB70503000325C4FDEFD0DFF3F1
:104F4C00AA871397070141838357C4FEBA97C207F8
:104F5C00C1832316F4FEB70503000325C4FDEFD06F
:104F6C003FF5AA871397070141838357C4FEBA976D
:104F7C00C207C1832316F4FE0356E4FE8357C4FE16
:104F8C0093960701C18613170601418763D3E60088
:104F9C00B287C207C1873E85B250225445618280D8
:104FAC00797122D60018232EA4FC232CB4FC232ABE
:104FBC00C4FC8327C4FD2322F4FE232604FE2324F1
:104FCC0004FE832744FE03D7A702832744FE83D71E
:104FDC00C702637FF700832744FE83D7C7022324CD
:104FEC00F4FE832744FE83D7A7022326F4FE15A0E4
:104FFC00832744FE83D7A7023E8793078016998F99
:10500C00032744FE0357C702BA972324F4FE232632
:10501C0004FE0327C4FE832784FD63EDE704032706
:10502C0084FD832784FE63E7E704032784FE83273C
:10503C00C4FEB307F7408583032784FD63EBE700C9
:10504C00832744FE03C7470313678700238AE702BD
:10505C0001A8832744FE03C747035D9B238AE7020D
:10506C00832744FE03C7470313670701238AE7021C
:10507C00854771AA0327C4FE832744FD6310F704F8
:10508C00032744FD8327C4FE1D8F832784FE1D8FB9
:10509C00930780E96304F702832744FE03C74703A1
:1050AC0013678700238AE702832744FE03C747035D
:1050BC0013670701238AE702854791AA0327C4FED9
:1050CC00832744FD6363F70413078016832744FD8D
:1050DC00B307F740032784FD6369F702032784FDB8
:1050EC009307801663E3E702832744FE03C7470355
:1050FC0013678700238AE702832744FE03C747030D
:10510C003D9B238AE702854719A20327C4FE832708
:10511C0044FD6375F7040327C4FE832744FDB307DE
:10512C00F74093878716032784FD6369F7020327EB
:10513C0084FD9307801663E3E702832744FE03C7CD
:10514C00470313678700238AE702832744FE03C7BC
:10515C0047033D9B238AE702854755A8032784FE16
:10516C00832744FD3E979307801663E7E7040327E4
:10517C0084FD8327C4FEBA97032784FE63EEE702FF
:10518C00032784FD8327C4FE3E97832684FE832752
:10519C0044FDB69763E2E702832744FE03C7470347
:1051AC005D9B238AE702832744FE03C747033D9B8D
:1051BC00238AE7028547A1A8032784FE832744FDA1
:1051CC003E979307801663F3E704032784FE832737
:1051DC0044FDBA97938787E9032784FD63E8E702C8
:1051EC00032784FD832784FE63F2E702832744FEB2
:1051FC0003C747035D9B238AE702832744FE03C74B
:10520C0047033D9B238AE702854711A081473E85D2
:10521C00325445618280011122CE00102326A4FE57
:10522C002324B4FE832784FE039707008327C4FE40
:10523C002390E700832784FE039727008327C4FE6F
:10524C002391E700832784FE039747008327C4FE3E
:10525C002392E700832784FE039767008327C4FE0D
:10526C002393E7000100724405618280011122CE74
:10527C0000102326A4FE8327C4FE839747001397B0
:10528C00070141838327C4FE83970700C207C183AC
:10529C00B307F740C207C1838507C207C183C207A2
:1052AC00C1873E85724405618280011122CE0010B7
:1052BC002326A4FE8327C4FE839767001397070158
:1052CC0041838327C4FE83972700C207C183B3079A
:1052DC00F740C207C1838507C207C183C207C187D4
:1052EC003E85724405618280011122CE0010232676
:1052FC00A4FE2324B4FE8327C4FE032784FE98C394
:10530C000100724405618280011122CE0010232617
:10531C00A4FE2324B4FE8327C4FE032784FED8C333
:10532C000100724405618280011122CE00102326F7
:10533C00A4FE2324B4FE032784FE8327C4FED8D7FF
:10534C000100724405618280011122CE00102326D7
:10535C00A4FE2324B4FE2322C4FE8327C4FE032709
:10536C0084FE98D38327C4FE032784FED8D38327D7
:10537C00C4FE032744FE98D7010072440561828065
:10538C00011122CE00102326A4FE2324B4FE832771
:10539C00C4FE032784FED8C70100724405618280D5
:1053AC00797106D622D40018232EA4FC232CB4FC2D
:1053BC0013069006832584FD0325C4FDEF50C544D8
:1053CC00AA872326F4FE8327C4FEC207C1873E8525
:1053DC00B250225445618280797106D622D40018CD
:1053EC00232EA4FC232CB4FC1306A006832584FDD9
:1053FC000325C4FDEF504541AA872326F4FE8327DD
:10540C00C4FEC207C1873E85B250225445618280DA
:10541C00797106D622D40018232EA4FC232CB4FCBC
:10542C004146832584FD0325C4FDEF50E53DAA8745
:10543C002326F4FE8327C4FEC207C1873E85B250E3
:10544C00225445618280797106D622D40018232E0D
:10545C00A4FC232CB4FC4546832584FD0325C4FD04
:10546C00EF50853AAA872326F4FE8327C4FEC20791
:10547C00C1873E85B250225445618280797106D62F
:10548C0022D40018232EA4FC232CB4FC49468325DB
:10549C0084FD0325C4FDEF502537AA872326F4FE8F
:1054AC008327C4FEC207C1873E85B2502254456192
:1054BC008280797106D622D40018232EA4FC232CCA
:1054CC00B4FC4D46832584FD0325C4FDEF50C53344
:1054DC00AA872326F4FE8327C4FEC207C1873E8514
:1054EC00B250225445618280797106D622D40018BC
:1054FC00232EA4FC232CB4FC2D46832584FD0325EC
:10550C00C4FDEF506530AA872326F4FE8327C4FE22
:10551C00C207C1873E85B2502254456182807971A1
:10552C0006D622D40018232EA4FC232CB4FC13067C
:10553C005006832584FD0325C4FDEF50E52CAA8776
:10554C002326F4FE8327C4FE3E85B25022544561C7
:10555C008280797106D622D40018232EA4FC232C29
:10556C00B4FC5946832584FD0325C4FDEF50C529A1
:10557C00AA872326F4FE8327C4FE93F7F70F3E85F4
:10558C00B250225445618280797106D622D400181B
:10559C00232EA4FC232CB4FC232AC4FC8327C4FD97
:1055AC002326F4FE8327C4FEDC53032784FD630506
:1055BC00F7068327C4FED857832784FD6353F7006F
:1055CC00BA870327C4FE185763D3E700BA87232C86
:1055DC00F4FC8327C4FE985B832784FD63D3E70028
:1055EC00BA87232CF4FC8327C4FEDC53032784FDE9
:1055FC006306F7028327C4FE138647028327C4FE83
:10560C009387C703032744FDBE86832584FD0325AA
:10561C00C4FDEF10201121A0010011A00100B25017
:10562C00225445618280797106D622D40018232E2B
:10563C00A4FC232CB4FC232AC4FC8327C4FD2326FE
:10564C00F4FE8327C4FE83C7C7058D8B13F7F70FB2
:10565C0089476315F7068327C4FED857832784FD33
:10566C006353F700BA870327C4FE185763D3E700C8
:10567C00BA87232CF4FC8327C4FED853832784FDDC
:10568C006353F700BA87232CF4FC8327C4FE9C5B7E
:10569C00032784FD6306F7028327C4FE13860703E2
:1056AC008327C4FE9387C704032744FDBE86832546
:1056BC0084FD0325C4FDEF10E00621A0010011A01C
:1056CC000100B250225445618280797122D60018B3
:1056DC00232EA4FC8327C4FD2326F4FE8327C4FEBB
:1056EC00B847FD576306F7008327C4FEFC4321A08F
:1056FC008327C4FEDC533E85325445618280797128
:10570C0022D60018232EA4FC8327C4FD2326F4FEE6
:10571C008327C4FE83C7C7058D8B13F7F70F894703
:10572C006306F7008327C4FE9C5731A88327C4FE69
:10573C00B84FFD576306F7008327C4FEFC4B21A02E
:10574C008327C4FE9C5B3E8532544561828079710F
:10575C0022D60018232EA4FC8327C4FD2326F4FE96
:10576C008327C4FEFC4F8D8B93F7F70F3E85325485
:10577C0045618280797106D622D40018232EA4FCB0
:10578C00232CB4FC832784FD2326F4FE8327C4FE3C
:10579C0023A407028327C4FE13074006D8D7832708
:1057AC00C4FE23A807028327C4FE23A20702832773
:1057BC00C4FE239A07028327C4FE239C0702832777
:1057CC00C4FE239B07028327C4FE239D0702832765
:1057DC00C4FE03C7C705719B238EE7048327C4FE51
:1057EC009387C703BE85032584FDEF1080048327B0
:1057FC00C4FE9387C704BE85032584FDEF106003A8
:10580C00A145032584FDEFA0C44AC145032584FDB1
:10581C00EFA0244A01468145032584FDB5330100E0
:10582C00B250225445618280797106D622D4001878
:10583C00232EA4FC232CB4FC832784FD2326F4FE06
:10584C008327C4FE9387C70381453E85EF205114FF
:10585C008327C4FE9387C70481453E85EF205113EF
:10586C000100B2502254456182802571232E1118FB
:10587C00232C811800132326A4E60325C4E6EF404D
:10588C001440232AA4FC832744FD2328F4FC03257D
:10589C00C4E6EF4014702326A4FC930784F8BE855D
:1058AC00032544FDEFF064308145032544FDEFF002
:1058BC003FAFAA872315F4FC8145032544FDEFF087
:1058CC00BFB1AA872314F4FC831784F8139707013C
:1058DC0041838357A4FCB307F740C207C183C207B7
:1058EC00C1872314F4F88317C4F813970701418375
:1058FC008357A4FCBA97C207C183C207C18723167A
:10590C00F4F88317A4F8139707014183835784FC99
:10591C00B307F740C207C183C207C1872315F4F848
:10592C008317E4F8139707014183835784FCBA97D4
:10593C00C207C183C207C1872317F4F8930784F801
:10594C003E85EFF0BF92AA872313F4FC930784F8EB
:10595C003E85EFF09F95AA872312F4FC832704FD64
:10596C00D857832704FD9C57B307F7402320F4FC3A
:10597C00031764FC831744FCB327F70093C7170085
:10598C00A30FF4FAA30704FE832704FD83C7C705FE
:10599C008D8B13F7F70F85476317F702832704FDE9
:1059AC009C5763D20702832704FDDC57635DF0002C
:1059BC00832704FD985B832704FD9C576315F70030
:1059CC008547A307F4FE8145032544FDEFF01FAB8B
:1059DC00AA87231EF4FA8145032544FDEFF07FAD21
:1059EC00AA87231DF4FA8145032544FDEFF05FA23D
:1059FC00AA87231CF4FA8145032544FDEFF0BFA4CC
:105A0C00AA87231BF4FA832704FD93874703130704
:105A1C0084F8BA853E85EFF01F80832704FD8397B9
:105A2C0047031397070141838357C4FBBA97C207F7
:105A3C00C183139707014187832704FD239AE7024B
:105A4C00832704FD839787031397070141838357AB
:105A5C00A4FBB307F740C207C18313970701418723
:105A6C00832704FD239CE702832704FD83976703A8
:105A7C00139707014183835784FBBA97C207C183ED
:105A8C00139707014187832704FD239BE702832794
:105A9C0004FD8397A703139707014183835764FB86
:105AAC00B307F740C207C1831397070141878327C8
:105ABC0004FD239DE7028347F4FBA5CF832704FD58
:105ACC00938747033E85EFF04FFEAA873E878D47AD
